:100000000C9420060C943D060C943D060C944A3347
:100010000C943D060C943D060C943D060C943D0654
:100020000C943D060C943D060C94A41A0C94601A92
:100030000C94942A0C943D060C943D060C943D06B9
:100040000C943D060C943D060C943D060C943D0624
:100050000C943D060C947D1B0C943D060C943D06BF
:100060000C943D060C943D060C943D060C943D0604
:100070000C943D060C943D060C943D060C943D06F4
:100080000C943D060C943D060C943D060C943D06E4
:100090000C943D060C943D060C943D060C943D06D4
:1000A0000C943D060C943D060C943D060501090296
:1000B000A10185020901A1000509190129081500FE
:1000C0002501950875018102050109300931158165
:1000D000257F95027508810609381581257F9501D0
:1000E00075088106050C0A38021581257F95017572
:1000F000088106C0C00660FF0961A1010962150000
:1001000026FF009520750881020963150026FF006F
:10011000952075089102C005010906A1010507197E
:10012000E029E71500250195087501810295017503
:100130000881010507190029FF150026FF00950613
:100140007508810005081901290515002501950587
:1001500075019102950175039101C0000000000036
:10016000000000000000000000000000000000008F
:100170000000000000000000000000000000007E01
:100180000F00D4FFFFFFC700000078000000000050
:100190000000002A2B2800000000000000000000E2
:1001A00000000000000029000000002C1E34202167
:1001B0002224342627252E362D3738271E1F2021AE
:1001C00022232425263333362E37381F040506070D
:1001D00008090A0B0C0D0E0F101112131415161727
:1001E00018191A1B1C1D2F3130232D350405060745
:1001F00008090A0B0C0D0E0F101112131415161707
:1002000018191A1B1C1D2F3130354C61626364654F
:10021000666768696A6B6C6D6E6F70717273747506
:10022000767778797A313233343536373839305217
:100230004542545F2D3D5B5D5C233B27602C2E2F98
:1002400000DA0281FFD9F1DB20A4A62EAF00A0C006
:10025000D30000A1C8D30000AED580A81F408D14E4
:100260002000783C1E1E140A050001010101010155
:10027000010101020202020202020202030303035D
:10028000030303030404040404040405050505052D
:1002900006060606060707070707080808080909EB
:1002A00009090A0A0A0B0B0B0C0C0C0D0D0D0E0E96
:1002B0000E0F0F0F10101111111212131314141529
:1002C0001516161717181819191A1A1B1B1C1D1D9D
:1002D0001E1E1F20202122222324242526262728F3
:1002E00029292A2B2C2D2D2E2F3031323233343523
:1002F000363738393A3B3C3D3E3F40414243444526
:10030000464748494A4C4D4E4F5051535455565804
:10031000595A5B5D5E5F616264656668696B6C6DAE
:100320006F7072737577787A7B7D7E808283858724
:10033000888A8C8E8F91939596989A9C9EA0A2A362
:10034000A5A7A9ABADAFB1B3B5B7BABCBEC0C2C467
:10035000C6C9CBCDCFD1D4D6D8DBDDDFE2E4E7E927
:10036000EBEEF0F3F5F8FAFDFF2223252628292AE3
:100370002C2D2F3032333536383A3B3D3E40424308
:100380004547494A4C4E5051535557595A5C5E6047
:1003900062646668696B6D6F71737577797B7D7F59
:1003A00081838587898A8C8E90929496989A9C9E58
:1003B0009FA1A3A5A7A8AAACAEAFB1B3B4B6B8B974
:1003C000BBBCBEBFC1C2C3C5C6C7C9CACBCCCDCEDC
:1003D000D0D1D2D2D3D4D5D6D7D7D8D9D9DADADBBF
:1003E000DBDBDCDCDCDCDCDDDDDDDDDCDCDCDCDC4B
:1003F000DBDBDBDADAD9D9D8D7D7D6D5D4D3D2D28A
:10040000D1D0CECDCCCBCAC9C7C6C5C3C2C1BFBE71
:10041000BCBBB9B8B6B4B3B1AFAEACAAA8A7A5A3DC
:10042000A19F9E9C9A98969492908E8C8A8987859B
:1004300083817F7D7B79777573716F6D6B6968667A
:100440006462605E5C5A5957555351504E4C4A494C
:1004500047454342403E3D3B3A3836353332302FF4
:100460002D2C2A29282625232200AF00AE2020008B
:10047000BABB004B657920B10020C0C100B4B50003
:10048000B2B300BEBF00484F0056540030302000C9
:1004900020202020B1BCBD0042616C6CB1002F0057
:1004A000204D563A004C617965723A0020200029AF
:1004B000001E001F00000020002100220000004C50
:1004C0000014001A00000008001500170000002B9F
:1004D00000040016000000070009000A00000021C7
:1004E000521D001B0000000600190005003000012D
:1004F00000E000E2000000E30091412C4290432D17
:1005000000270026000000250024002300000089A9
:10051000001300120000000C0018001C0000002452
:100520000233000F0000000E000D000B000000E57C
:10053000003800370000003600100011003200467D
:1005400000E60001000000E700914128422A00294E
:10055000021E022F00000020022102220200004C95
:100560000214021A02000008021502170200002BF2
:1005700002040216020000070209020A020000013A
:10058000001D021B020000060219020502300201D2
:1005900000E002E2020000E3020100010001008726
:1005A00002260225020000340223022E00000089E8
:1005B000021302120200000C0218021C0200001FAB
:1005C0000234000F0200000E020D020B020000E5D3
:1005D0000238023702000036021002110232020114
:1005E00000E60201000000E7020100010001000135
:1005F000003A003B0000003C003D003E00000001CE
:100600000001002400000025002600010000000178
:10061000000100210000002200230033020000013D
:100620000001001E0000001F0020002D0225020115
:100630000001002700000037000100010001004414
:1006400000430042000000410040003F0000004520
:100650000001004F000000520050000100000001A6
:1006600000D300D20000005100D1004B0000000177
:1006700000010001000000010001004E00260201FF
:10068000000100010000000100010001004C0020F9
:1006900078010001000000010001000100000021BC
:1006A00078237825780000277801000100000022D7
:1006B00078247826780000287801000100000001E5
:1006C000000100097E0000087E077E067E037C0094
:1006D0007C010050000000510052004F000100302A
:1006E000782F782E7800002D782C782B7800000158
:1006F000000100347800003378327831780000004F
:100700007E017E047E0000027E037E057E000001E5
:100710000001004D0000004B004E004A00037C0029
:100720007C010001000000010001002A000100011D
:1007300000010001000000010001000100000001B3
:1007400000010001000000010001000100000001A3
:10075000000100417E0000437E407E010000000158
:100760000001000100000001000100010001000182
:100770000001000100000001000100010001000172
:100780000001000100000001000100010000000163
:100790000001000100000001000100010000000153
:1007A000000100417E0000437E407E010000000108
:1007B0000001000100000001000100010001000132
:1007C000000100010000000100010001000100091A
:1007D000025B00030100A0FA09040000010301010B
:1007E00000092111010001224400070581030800CE
:1007F00001090401000203000000092111010001A8
:1008000022220007058203200001070503032000C0
:100810000109040200010300000009211101000187
:100820002249000705840320000112010002000094
:1008300000085759000100010102000114034B0098
:1008400065007900620061006C006C0036003100C8
:100850000000100359006F0077006B006500650011
:100860007300000004030904000000000000000001
:100870002F000000000700070000123F123F120087
:10088000242A7F2A120036091E241B00182629124A
:100890002800000007000000001E2140000000406A
:1008A000211E000014083E08140008083E08080035
:1008B0000000307000000808080808000000303010
:1008C000000020100C0201001E2925231E0000221A
:1008D0003F200000223129292600122125251A0057
:1008E0001814123F10001725252518001E25252550
:1008F00018000131090503001A2525251A000629CB
:1009000029291E000000333300000000337300006B
:100910000814142222001414141414002222141493
:1009200008000201290502003E59555D3E003816B7
:10093000111638003F2525251A001E2121211200FD
:100940003F2121211E003F25252521003F090909BE
:1009500001001E2121291A003F0404043F00002148
:100960003F210000102020201F003F040C12210016
:100970003F20202020003F0204023F003F020C10D5
:100980003F001E2121211E003F09090906001E21EA
:1009900029112E003F0909192600122525291200C8
:1009A00001013F0101001F2020201F00071820180F
:1009B00007000F300C300F0021120C12210003042D
:1009C00038040300312925232100007F4141000024
:1009D00001020C1020000041417F000004020102CE
:1009E0000400404040404000000103040000102A81
:1009F0002A2A3C003F2422221C001C2222222400FE
:100A00001C2222243F001C2A2A2A0C0000043E0536
:100A100005000C5252543E003F0804043800000008
:100A20003D0000002040403D00003F080814220027
:100A300000013F2000003E023C023C003E04020256
:100A40003C001C2222221C007E1422221C001C229C
:100A500022147E003E0402020400242A2A2A1200E4
:100A600000021F2200001E2020103E000618201841
:100A700006000E300C300E002214081422000E5016
:100A800050483E0022322A262200080877414100C1
:100A900000007F000000414177080800180408109A
:100AA0000C0000000000000000000000000000003A
:100AB00000000000C0F0F88C86C6E7FFFFFFFFFFD4
:100AC000FFFEFCFCF8E080000000F0F0F00000C049
:100AD000E0F0707000000000000000000000000066
:100AE00000000000000000000000F8F8F80000001E
:100AF00000000000000000000000000000000000F6
:100B0000F8F8F80000F8F8F8000000000080E07045
:100B100078686C64C7C7C7C7C7C7E73F1F0F3FFFE9
:100B2000FFFFFFFFFF3F0F000000FFFFFF1E3FFF23
:100B3000F3E1800000F8FCFE3636363EBCB8000E0D
:100B40003EFEF080F0FE3E0E0000FFFFFF060606B0
:100B5000FEFEFC7000E6F6F63636FEFEFC000000F7
:100B6000FFFFFF0000FFFFFF000000003C7F63600D
:100B7000E0C0C0C0C0C0C0C0C0FFFFC06030180F20
:100B80000303030100000000000003030300000052
:100B900003030303000103030303030303010070C2
:100BA00070393F1F07010000000001030303030326
:100BB000030301000001030303030303010000001A
:100BC00003030300000303030010101000000000E3
:100BD000550000003E635D5D637F417B77413E00D1
:100BE000001C22221C003E0A003E0A00322A3C0061
:100BF00026281E001C2A2C0000003F093600000099
:100C00001E212100000000003F0837001E212100A6
:100C10001E2121003F090600213F21002225190045
:100C20001E2121003F0936003F211E00213F2100E7
:100C30000F300F003E093E003F063F003F202000DE
:100C400011241FBECFEFDAE0DEBFCDBF11E0A0E080
:100C5000B1E0E0E4FCE602C005900D92A43EB107CD
:100C6000D9F726E0A4EEB1E001C01D92AF37B2077C
:100C7000E1F70E94BB2A0C94C8350C9400008F92B7
:100C80009F92AF92BF92CF92DF92EF92FF9290919C
:100C9000A501981305C090916604903209F44BC0E9
:100CA0008093A50190E290936604C82ED12CF12C7C
:100CB000E12C10926504C701B6012AE030E040E063
:100CC00050E00E94DF34605D603331F0C114D10424
:100CD000E104F10409F460E26093640460E28AE0F4
:100CE000C816D104E104F10490F08AE0882E912C1A
:100CF000A12CB12CC701B601A50194010E94DF34DB
:100D0000CA01B901A50194010E94DF34605D6093BE
:100D1000630420E284E6C816D104E104F10448F03B
:100D2000C701B60124E630E040E050E00E94DF3425
:100D3000205D2093620482E694E0FF90EF90DF90C4
:100D4000CF90BF90AF909F908F900895FC019091AD
:100D50005D048181981321C080915E04882319F07D
:100D6000928189131AC080915F04882319F09381BE
:100D7000891313C080916104882319F09581891328
:100D80000CC080916004882351F091E024812813E5
:100D900001C090E0892F8170089581E0FCCF80E050
:100DA000FACF482F20915B049091220457E0291339
:100DB00002C080E0089530E0529FF001539FF00D93
:100DC0001124ED5DFB4F8181681306C080814813BB
:100DD00003C085818111EECF2F5F3F4F2770E7CF92
:100DE000E8EDF0E080818E7F80831092E200109227
:100DF000DA001092E100A0EEB0E08C9181608C935B
:100E000080818F77808319BCA7EDB0E08C918E7FB5
:100E10008C9380818F7E808310920A0408952091A4
:100E2000E4003091E50095E6A9012091EC00822FC5
:100E3000817020FF06C08091E80080FF06C080E03E
:100E400008952091E80022FD1AC08091180488239B
:100E500089F0853089F08091EB0085FD0FC02091ED
:100E6000E4003091E50042175307F9F29150E1F6A2
:100E700084E0089582E0089583E0089581E0089574
:100E800080911A0487FF13C08091E80082FF06C09A
:100E90008091E8008B778093E80004C0809118046B
:100EA0008111F2CF0895809118048823D9F380919D
:100EB000E80080FFF8CF8091E8008E77ECCF982F84
:100EC0009093E900242F762F50E0891731F070912C
:100ED000EC002091ED005091F00021FD07C09F5FD4
:100EE000973071F78093E90081E008953091EB002D
:100EF0003E7F3093EB003091ED003D7F3093ED006D
:100F00003091EB0031603093EB007093EC00209354
:100F1000ED005093F0002091EE0027FDE0CF80E03F
:100F20000895B0E0A0E0E7E9F7E00C948434C8ED60
:100F3000D0E088818F7E8883E7EDF0E0808181605A
:100F4000808384E082BF81E080930A0488818E7F61
:100F5000888302EE10E0F80110821092DA0081EE30
:100F6000C82ED12CF601108288818F7788838881E2
:100F70008068888388818F7D888319BC10921804CB
:100F800010921904109217041092160490EEE92E94
:100F9000F12CF70180818B7F808388818160888339
:100FA00042E060E080E00E945F07F60180818E7F72
:100FB0008083F80180818160808380818860808364
:100FC000F70180818E7F8083888180618883CDB79F
:100FD000DEB7E8E00C94A034FC01809120049091ED
:100FE000210486179707A0F06115710529F49091E7
:100FF000E8009E779093E80090E06115710551F448
:10100000911108C08091E80082FF34C080E008950B
:10101000BC01F2CF809118048823C1F18530C1F161
:101020008091E80083FD30C08091E80082FDEACF26
:101030008091E80080FFE1CF8091F3002091F200E1
:10104000382F6115710519F02830310558F091E0FD
:101050002830310509F090E02091E8002E772093A8
:10106000E800CBCF81918093F100615071092F5F2F
:101070003F4FE7CF80911804882341F0853041F03D
:101080008091E80083FFBECF81E0089582E008955B
:1010900083E008950895089580910D04089587E7E9
:1010A00097E7909301088093000888E19AE00FB6D3
:1010B000F894A895809360000FBE90936000FFCFD6
:1010C0002FB7F8946091060470910704809108048A
:1010D000909109042FBF0895FC01680F791F8FEFCD
:1010E00091E32191822728E030E087FF09C0880F33
:1010F000892721503109C9F7E617F70791F70895B5
:10110000880FF7CFFA01811101C0FB0109950895FD
:10111000E7ECF3E0118282818460828308958091FC
:10112000CA03982F9E7F61F4817082608093CA0306
:101130008091CD03893718F088E78093CD03089517
:101140008231B0F381708061F1CFAF92BF92DF92B4
:10115000EF92FF920F931F93CF93DF93082F162FD9
:10116000E901E42FF0E0E759FD4F611110C0E4916F
:101170005E2F4E2F4983E8835A83DF91CF911F91D1
:101180000F91FF90EF90DF90BF90AF900895E62E03
:10119000F12C4491D42EE42FF0E026E0829FC00190
:1011A00011242FEF30E0B9010E946634802F90E0C7
:1011B000880F991F55E5569FD001579FB00D1124F8
:1011C0008A1B9B0B982F990F890F5901AE18BF08E6
:1011D000AE9ED001AF9EB00DBE9EB00D11245B2F10
:1011E000189F80011124012F11275901A01AB10A5B
:1011F000AE9E8001AF9E100DBE9E100D11245901B0
:10120000A81AB108AE9CC001AF9C900DBE9C900D79
:101210001124892F9927281B390B2E9FC0012F9F3E
:10122000900D3E9F900D1124E92F62307105A1F0C1
:1012300050F46115710509F49DCF6130710581F09D
:10124000EB2F512F97CF6430710569F080F0663035
:10125000710509F48FCFF4CFE42F4B2F592F8ACF8C
:10126000E42F412F87CFEB2F542F492F83CF4B2FC4
:101270005D2DE12F7FCFCF93DF93E0E8F1E0838115
:101280009481A581B681E90188839983AA83BB8370
:101290001482138216821582DF91CF91089580E027
:1012A000089563E070E08EE492E00E946C089091F3
:1012B0004D02891318C0E0914E02EC30A4F488E08E
:1012C000E802F0011124E65FFE4F0680F781E02D71
:1012D000309749F021E732E04091500261E572E039
:1012E00080914F0209950895E7E3F2E0808D8093A5
:1012F0003A01818D80934D010895811522E5920771
:1013000080F5811530E5930708F0ABC0883E910564
:10131000A0F4803E910558F4853A910548F4843054
:10132000910528F48130910511F090E080E0089556
:101330008D3C9105D0F390650895811540E49407A4
:1013400008F044C0811550E2950708F0A3C081154C
:1013500061E0960750F320E0392FA901482BCA011C
:101360000895803872E59707A8F4803622E5920741
:1013700008F05AC0803432E5930708F03FC080324D
:1013800042E5940730F18F7190E0982F8827816FA4
:10139000906A0895803C52E5950760F4282F2F71DC
:1013A000803A924508F456C0822F90E0982F882703
:1013B00090620895803E72E5970708F0B6CF982FA7
:1013C000882788279F71806F906A08959F70906A20
:1013D0000895282F2695269550E2259F90011124E7
:1013E000837041E050E0BA0102C0660F771F8A9512
:1013F000E2F7CB01822B932B9D680895282F269529
:101400002695277070E2279F90011124837041E098
:1014100050E0BA0102C0660F771F8A95E2F7CB0150
:10142000822B932B9C680895282F2695269527704C
:1014300070E2279F90011124837041E050E0BA01CF
:1014400002C0660F771F8A95E2F7CB01822B932BA0
:101450009A680895822F90E0982F8827846F906A69
:1014600008959C0195E0369527959A95E1F72F70A0
:1014700030E0322F2227482F4F7150E084FF05C003
:1014800084E0440F551F8A95E1F7C901842B952B01
:10149000906908959F718CCF809590910B0498234B
:1014A00090930B04089580915B049091220498130B
:1014B00001C008958F5F8770FACF9A3080F5883029
:1014C00070F548E0949F90011124820F932F911D95
:1014D000682F677023E0969587952A95E1F7FC01C0
:1014E000EE0FFF1FE80FF91FED5FFD4F50E040E0EA
:1014F00080E0219130E0062E02C0369527950A94AF
:10150000E2F721703327042E01C0220F0A94EAF774
:10151000822B4F5F5F4F4330510559F7089580E0AC
:1015200008959A3098F5883088F548E0949F9001A6
:101530001124820F932F911D282F277041E001C0A5
:10154000440F2A95EAF723E0969587952A95E1F7C7
:10155000FC01EE0FFF1FE80FF91FED5FFD4F90E05C
:1015600080E070E05191DF0111979B01082E02C0CD
:10157000369527950A94E2F7217021952527242393
:1015800025272C9301968330910561F70895809368
:10159000D80308959091D80321E030E0F90101C00B
:1015A000EE0F8A95EAF7D90102C0AA0FBB1F6A9510
:1015B000E2F7EA2B01C0220F4A95EAF7892F8E2322
:1015C000E81305C0292B822F0E94C70A0895209591
:1015D0002923F9CF21E030E001C0220F8A95EAF7F4
:1015E00020958091D80382230E94C70A0895909184
:1015F00028028095892380932802282F277069F478
:10160000891759F09091AD0292FF07C08695869593
:1016100086950E94EA0A10922802089521E030E09F
:1016200001C0220F8A95EAF78091D803822B0E948D
:10163000C70A0895809333020895982F92959F705A
:1016400011F0892F94E0282F2695269511F09E5FA2
:10165000822F869509F09F5F892F0895CF93C82F19
:1016600080918D018C1751F00E94600860938E016B
:1016700070938F018093900190939101C0938D019D
:10168000CF910895B0E0A0E0E8E4FBE00C9484344E
:101690008C01EB01E0919201E11101C0E4E0E15025
:1016A000FF0B81E090E06C010E2E02C0CC0CDD1C23
:1016B0000A94E2F7D801ED90FC90C701B6010E94B0
:1016C000CB349B01CB010E2E02C0880F991F0A94C8
:1016D000E2F7E81AF90AD8011196FC92EE921296F6
:1016E000ED90FC90C701B6010E94CB34CB0102C043
:1016F000880F991FEA95E2F7E81AF90AF801F382D0
:10170000E2826138FFEF7F07F4F060387105ECF496
:101710006D8321388FEF3807D4F020383105CCF4B1
:10172000822F81958C83442319F061956D832C83DE
:1017300080919301882379F0813079F0CDB7DEB7BD
:10174000E8E00C94A03461E8E3CF6FE7E1CF21E853
:10175000E7CF2FE7E5CF1D82F1CF1C82EFCFFC0151
:10176000DB012281338191E821388FEF38072CF09B
:10177000922F203831050CF09FE712969C93129718
:101780002081318121388FEF3807A4F020383105CE
:101790009CF413962C931397442339F09195129649
:1017A0009C931297219513962C9311821082138289
:1017B0001282089521E8EDCF2FE7EBCF382F20E2FA
:1017C00087FF02C031952DE24AE0832F642F0E94EB
:1017D000BD34905D9093FB0181110BC02093FA0101
:1017E00020E22093F90120E22093F80188EF91E0B4
:1017F0000895642F0E94BD34905D9093FA01832F69
:1018000064E60E94BD34882361F3805D8093F90112
:10181000EBCF9C01860F971F37FD07C077FD04C0F3
:1018200097FF02C08FEF9FE7089577FFFDCF97FDE9
:10183000FBCF80E090E80895E82FE295EF70F0E0AC
:1018400031A1282F2F7081E090E001C0880F2A95E8
:10185000EAF7382B31A392A18095892382A30895BA
:10186000E82FE295EF70F0E031A1282F2F7081E092
:1018700090E001C0880F2A95EAF7982F909593235E
:1018800091A392A1892B82A30895B0E0A0E0EBE49C
:10189000FCE00C9484347C016B018091720601E0C1
:1018A00010E08A3010F40AE010E0C1E0D0E068E710
:1018B00076E0C701F6010995811104C021960C1745
:1018C0001D072CF4CDB7DEB7E8E00C94A034CC9F14
:1018D0009001CD9F300D300D112490E080E045E364
:1018E0004A95F1F70000019682179307C1F7DFCF01
:1018F0000F931F93CF93DF938B01EA01909118040C
:10190000943061F58093E9008FEF9091E800815069
:1019100095FD06C095ED9A95F1F700008111F5CF80
:101920008091E80085FF1AC00E940F07811111C045
:101930008091E80085FD06C08091E8008E77809355
:10194000E800F2CFF80181918F018093F100219797
:1019500079F78091E8008E778093E800DF91CF914E
:101960001F910F91089546E050E0BC0184E00E9471
:10197000780C0895CF93DF93EC0148E050E0BC0170
:1019800081E00E94780C88E0FE01AEE0B4E00190B6
:101990000D928A95E1F7DF91CF91089560917C01D6
:1019A0008091CA0380FF20C080917B0143E0849F27
:1019B000C00111248D519D4F539A2BB1277F3BB10C
:1019C00038605FB7F894FC01649FE00DF11D1124AD
:1019D000BF0168177907D1F45FBF8FE594E00197E5
:1019E000F1F700C00000089580917D0190917E0183
:1019F00023E0829FF0011124ED51FD4F8917A0F6DD
:101A00001182108212828F5F3396F8CFFC014191D0
:101A1000CF01E8E03BB9000000C047FF2BB9440FFD
:101A2000000000C000C000C02BB900C0EA9591F7CB
:101A3000D0CF9091CA0390FF0EC090917D0120916C
:101A40007E0133E0939FF0011124ED51FD4F921779
:101A500018F00E94CE0C08958183608342839F5FBB
:101A60003396F5CFA3E0B0E0E8E3FDE00C948A34D0
:101A70009091CA0390FF0DC0493708F048E79E01D6
:101A80002F5F3F4F0E94A5084B8169818A810E9488
:101A9000190D2396E2E00C94A634CF93DF93EC016A
:101AA000EAECF3E0438162818C810E94320D8C81EB
:101AB0008F5F8C83DF91CF910895CF93DF93EC01FB
:101AC000EC81F0E0E759FC4F4491EAECF3E06281ED
:101AD00081810E94320D8C818F5F8C83DF91CF9149
:101AE0000895EAECF3E080818E7F80830E9488086D
:101AF000E7ECF3E08281816082830E94CE0C08953E
:101B000080913602811119C088EC90E02091E300A9
:101B100027FD10C0EFE3FCE93197F1F700C00000AA
:101B20000197A1F782E0809336020E94F00610929E
:101B3000180403C081E08093360281E09091360260
:101B4000913011F080E0089508950E94800D88235F
:101B500059F0E0910304F0910404309729F00190CA
:101B6000F081E02D0995089580E008950F931F936B
:101B70000E94800D882329F00E9460081F910F9118
:101B800008950E9460080091A6021091A70220917A
:101B9000A8023091A902600F711F821F931FEECF20
:101BA00057985F9A879A8F9825E02A95F1F7000059
:101BB00089B187988F9A90EA9A95F1F790E0880F0B
:101BC000892F881F990B21E0822781700895CF9378
:101BD000DF9380918001C5E28111C2E28091810191
:101BE000D0E0882329F080918201D5E28111D2E2F0
:101BF0000E94D00D81110FC08D2F80937B01C09367
:101C00007C01CD0F10927D01C0937E01C0937F01B6
:101C1000DF91CF91089580E0F0CF80918001F901AC
:101C200080830E94E70D0895CF9383ED92E00E9498
:101C3000A606C82F882379F0E0910304F0910404EC
:101C4000309749F082E080935C040480F581E02DB8
:101C50008CE594E0099590915D0486E0ECE5F4E074
:101C6000DF01282F1D922A95E9F790935D04A3EDDB
:101C7000B2E001900D928A95E1F781E0C11103C0B5
:101C8000911101C080E08170CF9108952FE2280F5B
:101C9000283078F481E090E001C0880F2A95EAF7B7
:101CA00020915D04662331F0822B80935D040E94B5
:101CB000140E089580958223F8CFCF93DF93282FB9
:101CC00081E02A3019F02D3031F480E00E94F10ECD
:101CD000DF91CF910895809170069091710636E062
:101CE000FC01AAE6B6E001900D923A95E1F730EEDC
:101CF000320F343A08F458C026E0FC0111922A95BC
:101D0000E9F7C0917006D091710646E050E0BE013F
:101D10008AE696E00E945A359E012A563440892B65
:101D200041F1C90145E0969587954A95E1F741E073
:101D300050E0BA0102C0660F771F8A95E2F7CB0127
:101D40006091680470916904862B972BB9016B5FD1
:101D50007F4FE5E076956795EA95E1F702C0440F7D
:101D6000551F6A95E2F7842B952B90936904809315
:101D700068042A5F3F4F40916704642F70E0C901F7
:101D80000E946634481B463010F4240F311D211583
:101D900072E0370710F030E020E026593B4F3093D7
:101DA00071062093700694CF2052330B46E0429F79
:101DB000B001439F700D11246859774F46E050E001
:101DC0000E9444359ECFCF93DF93EC01FE018491B6
:101DD000811103C0DF91CF9108950E945D0E21967D
:101DE000F5CFCF93382FE0917006F0917106EA5647
:101DF000F44020916704622F70E0CF010E946634A6
:101E0000281B822F332361F066E00E94B134C82F73
:101E1000C15010F4CF91089580E20E945D0EF8CF7A
:101E20009F01280F311D2115324018F080E0F0E0AD
:101E3000E0E08E0F9F2F911D86599B4F9093710666
:101E400080937006E7CF80910B0490913202892B2A
:101E50008093E60190913102992391F0892B809330
:101E6000E60120E088EE91E0FC013191CF013111D3
:101E70002F5FF1E08E3E9F07B9F7211110923102DA
:101E800048E050E069E272E086EE91E00E945A3547
:101E9000892BA9F088E0E6EEF1E0A9E2B2E001903A
:101EA0000D928A95E1F7E0910304F09104043097D4
:101EB00031F00280F381E02D86EE91E009950895DE
:101EC000E8EEF1E086E0DF011D928A95E9F71092D5
:101ED00032020E94230F0895AAE2B0E0E2E7FFE099
:101EE0000C9489348AE194E02091F100DC012D9377
:101EF000CD01B4E082329B07B9F780911B04833097
:101F000009F472C0B8F4813009F449C0823009F490
:101F1000B5C08091E80083FF8DC280911A04909132
:101F20001B049A3008F086C2E92FF0E0E653FA4C21
:101F30000C9401358A3009F490C08B3009F471C0DB
:101F4000893039F780911A04813219F780911E0483
:101F500090911F04009711F00297D9F68091E80044
:101F6000877F8093E8008091E80082FF38C09091DD
:101F7000F3008091F200029731F48091F1008130FA
:101F800011F0863021F48091F10080930D0480914E
:101F9000E8008B778093E8000E944007BACF8091D9
:101FA0001A04813A09F0B5CF8091E800877F8093C9
:101FB000E80080911E0490911F04892B61F468E071
:101FC0008EE094E070E00E94EC078091E8008B774F
:101FD0008093E8009ECF60E090E080E0F3CF8091B6
:101FE00018048111C0CF95CF80911A04813A09F06D
:101FF00090CF80911E0490911F04892B09F089CF06
:102000008091E800877F8093E8008091E80080FF5E
:10201000FCCF80917A018093F1008091E8008E7767
:10202000B9CF80911A04813209F073CF80911E04D8
:1020300090911F04892B09F06CCF8091E800877F75
:102040008093E8000E94400780911C0480937A01ED
:1020500010920B040E94600F5CCF80911A048132B1
:1020600009F057CF8091E800877F8093E8000E94B5
:10207000400780911D0480930C044BCF80911A047B
:10208000813A09F046CF8091E800877F8093E8008D
:102090008091E80080FFFCCF80910C04BCCF803899
:1020A00099F0823809F0C6C180911E048F70873084
:1020B00008F0C0C18093E9008091EB0085FB882780
:1020C00080F91092E90006C08091160490911704DF
:1020D000911182609091E800977F9093E80080933F
:1020E000F1001092F1008091E8008E779FC1882363
:1020F00009F48DC1823009F09DC180911C048111C9
:1021000090C180911E048F702FEF280F263008F0A9
:1021100091C18093E9002091EB0020FF82C19330B0
:1021200031F48091EB0080628093EB007AC1909152
:10213000EB0090619093EB0021E030E001C0220FB2
:102140008A95EAF72093EA001092EA008091EB006A
:102150008860EACF81116EC110911C041F778091B5
:10216000E3008078812B8093E3008091E800877FF3
:102170008093E8000E9440078091E80080FFFCCF38
:102180008091E30080688093E30082E0111183E096
:10219000809318044FC18058823008F04BC12091C1
:1021A0001C0430911D042C3DE3E03E07A1F583E0C3
:1021B0008A838AE289834FB7F894DE01139620E080
:1021C0003EE051E2E32FF0E050935700E49120FF0E
:1021D00003C0E295EF703F5FEF708E2F90E0EA3022
:1021E000C0F0C7968D939D932F5F243159F74FBF51
:1021F0008091E800877F8093E8006AE270E0CE017A
:1022000001960E94EC078091E8008B778093E800AC
:1022100011C1C096E7CF80911E0490911F04432FF7
:1022200055274330510509F44AC078F5413051052E
:1022300009F47AC08BE590E0EFECF7E0423051050D
:1022400009F0F8C02091E800277F2093E800209152
:102250002004309121048217930708F49C0140E088
:102260002115310509F065C0411163C08091E80076
:1022700082FDC9CF80911804882329F2853019F294
:102280008091E80083FFF2CFBECF4132510509F4BF
:102290003CC04232510509F0CDC08330910508F0B1
:1022A000C9C0FC01EE0FFF1FE952FE4F0190F08103
:1022B000E02D8C529E4FDC018C9190E01AC03327A8
:1022C00021303105D1F02115310561F02230310581
:1022D00009F0B0C0ECE3F8E0E4918E2F90E0ECE37D
:1022E000F8E007C0E4E6F8E0E4918E2F90E0E4E641
:1022F000F8E0009709F49EC0A5CFE2E5F8E0E4918C
:102300008E2F90E0E2E5F8E0F4CF8330910508F0FD
:1023100091C0880F991FFC01E352FE4F0190F0819C
:10232000E02D89E090E08ECF82E190E0EAE2F8E0F3
:1023300089CF80911804882309F465CF853009F48A
:1023400062CF8091E80083FD5ECF8091E80082FD3E
:102350008DCF8091E80080FF83CF9091F300809132
:10236000F2002115310519F08830910550F041E057
:10237000089709F040E08091E8008E778093E800AC
:102380006FCF44914093F10031962150310901966D
:10239000E8CF803809F04EC08091E800877F8093B5
:1023A000E800809119048093F1009DCE811142C014
:1023B00010911C041230F0F58091E800877F809323
:1023C000E800109319040E944007112311F084E0E3
:1023D00005C08091E30087FDFACF81E08093180467
:1023E00042E061EC81E00E945F0742E261EC84E040
:1023F0000E945F0742E261EC82E00E945F0742E2D6
:1024000060EC83E00E945F078091180413C0809104
:102410001C04813079F481E0933009F080E08093EE
:1024200017041092E9008091E800877F8093E8000C
:102430000E9440078091E80083FF0AC08091E80075
:10244000877F8093E8008091EB0080628093EB00AF
:10245000AA96E3E00C94A53410920B040E94600F3E
:102460002FEF84E39CE0215080409040E1F700C0D2
:10247000000088E19AE00FB6F894A8958093600078
:102480000FBE90936000FFCF882321F00E944C0A7A
:102490000E94230F0895882339F090910B04982B04
:1024A00090930B040E94230F0895882349F19CEF19
:1024B000980F913A80F4E8EEF1E02EEE31E0919140
:1024C000891303C0DF0111971C922E173F07B9F73C
:1024D0000E94230F089590E2980F983050F487706F
:1024E00091E001C0990F8A95EAF7892F0E944C0A62
:1024F000EFCF93E3980F933118F460E00E94460EFB
:1025000008950F931F93CF93C82F882341F18CEF29
:102510008C0F813AB0F508EE11E08EEE91E0F801F3
:102520002191C21701F18E179F07D1F7EFEF80E0DD
:10253000D8019D918D01C91781F0EF3F19F49111D8
:1025400001C0E82F8F5F863099F7EF3F31F00E2EF4
:10255000000CFF0BEA51FE4FC2830E94230FCF9164
:102560001F910F910895E8EEF1E02191C21303C08D
:10257000DF0111971C928E179F07B9F70E94230F56
:10258000D5CF80E28C0F883068F4C77021E030E04E
:1025900001C0220FCA95EAF780910B04822B809329
:1025A0000B04DBCF83E38C0F8331C8F661E08C2F03
:1025B0000E94460ED4CF1F93CF93DF93182FEB01C9
:1025C0000E9481128FE99FE00197F1F700C000009F
:1025D0002197C1F7812F0E945512DF91CF911F9152
:1025E00008950F931F93CF93DF93EC01FC010190AB
:1025F0000020E9F78F0101501109C017D10728F019
:10260000DF91CF911F910F91089589910E945D0EE6
:10261000F4CFCF93DF93C9E4D3E060E0CE010E9412
:1026200094352196C11584E0D807B9F7DF91CF9191
:1026300008951F93CF93DF93122F8530E0F46A3013
:10264000D0F44830C0F490E1699FE001112450E0DB
:10265000440F551FC40FD51F90EA899FC00DD11D8F
:102660001124632FCE0189960E949435612FCE01EB
:102670008A960E949435DF91CF911F910895AF9271
:10268000BF92CF92DF92EF92FF921F93CF93DF938F
:102690008FEAC82E84E0D82ED0E07601C0E014C0C6
:1026A000F50125913491412F6C2F8D2F0E94191324
:1026B00082E0A80EB11C1F5F183091F780E1E80E90
:1026C000F11CCF5FCA3019F0570110E0E9CFDF5F8E
:1026D00080EAC80ED11CD53001F7DF91CF911F9150
:1026E000FF90EF90DF90CF90BF90AF90089588E279
:1026F00090E00E9494350895CF93C82F6FEF811119
:1027000065E285E290E00E9494356FEFC11169E0C7
:1027100086E290E00E9494356FEFC11162E087E29B
:1027200090E00E949435CF91089580E00E947C1340
:1027300060E070E0CB010E9477130E943F130E947B
:10274000091381E00E947C1308950F931F93CF9388
:10275000DF93853030F56A3020F5483010F520E100
:10276000629F8001112450E0440F551F040F151F74
:1027700030EA839F000D111D1124C80189960E9423
:102780007035C82FD0E0DC2FCC27C8018A960E9474
:1027900070359E01282BC901DF91CF911F910F91B8
:1027A000089590E080E0F8CF462F7A3040F468300A
:1027B00030F4853020F4672F0E94A513089590E02F
:1027C00080E00895CF92DF92FF920F931F93CF93F3
:1027D000DF936C010091D80380913302082BC4E091
:1027E000D0E010E0FC2EC8010C2E02C09595879514
:1027F0000A94E2F780FD0CC02197A0F7F12C8F2DF1
:10280000DF91CF911F910F91FF90DF90CF900895AE
:10281000B6018C2F0E94D4130E947D09019761F3A9
:10282000EECFCF93DF93EC010E94E213BE010E9432
:10283000D4130E947D09DF91CF910895FC0124817A
:102840002223C1F0808191810E94111492959F7082
:10285000963091F058F4925F9F70923058F4803F18
:1028600019F030F4883E30F481E008959A5FF4CF97
:10287000843FD1F380E00895883EB0F3813FD1F7E3
:10288000F3CFA6E0B0E0E7E4F4E10C9489344983A7
:102890005A8349815A819923A1F0222391F0CA01D8
:1028A0000E94E213182F682F89819A810E94910A51
:1028B00069817A81812F0E94D4132696E3E00C94DB
:1028C000A534CA010E945D0A182FF2CF88E290E079
:1028D0000E947035682F70E090E080E0089585E2F6
:1028E00090E00E947035853289F486E290E00E9483
:1028F0007035893059F487E290E00E94703591E09C
:10290000823009F090E0892F8170089580E0FCCF3B
:10291000B0E0A0E0EEE8F4E10C9484346C017B01BB
:1029200064E670E088E70E94C4318C01E601EC0C9B
:10293000FD1C17FD0BC0FE01849164E670E00E944F
:1029400030328C012196CE15DF0599F70E94A63210
:1029500081E00115110509F080E0CDB7DEB7E8E0B0
:102960000C94A0348091FF0390910204911103C054
:1029700091E089270895882369F062E070E08BE692
:1029800094E00E948814811103C08091FF03089590
:102990001092FF038091FF03EBCFCF93C091FF0311
:1029A000809102048823D1F00E946008605A75412A
:1029B0008F4F9F4F6093FB037093FC038093FD0345
:1029C0009093FE03C11108C062E070E089E694E0D4
:1029D0000E948814811105C0C091FF038C2FCF91F4
:1029E000089581E08093FF03F7CFB0E0A0E0EBEF24
:1029F000F4E10C94803449015A016B017C010E947E
:102A00008F088401A4016A2D7B2D88E090E00E944C
:102A1000A63594014A2D5B2DB601C70100E20E9444
:102A20002935622F84E290E00E949435CDB7DEB75D
:102A3000ECE00C949C34A3E0B0E0E1E2F5E10C940E
:102A40008634082FF62E142FE22E8091CA0380FFC1
:102A500043C02091CB03201308C09091CC03961360
:102A600004C09091CD03941729F09091C90392600E
:102A70009093C903E82FE695F0E0ED53FE4F908167
:102A80009093C7038E7F823059F5412F193708F094
:102A900048E79E012F5F3F4F6F2D802F0E94A508B2
:102AA0004B8169818A810E94190D0093CB03F092BA
:102AB000CC031093CD03EE2079F02091CA036091EE
:102AC000CE037091CF03302F4F2D512F8091D00323
:102AD0009091D1030E94F5142396E6E00C94A23461
:102AE000923019F41091CD03E0CF9630F1F6022F19
:102AF000DCCFEAECF3E043812CE0421B08F440E039
:102B000021E0628181810E941B150895EAECF3E0C7
:102B100043812CE0420F08F44FEF21E06281818174
:102B20000E941B150895EAECF3E0628121E1621B2B
:102B300008F460E021E0438181810E941B15089523
:102B4000EAECF3E0628121E1620F08F46FEF21E02B
:102B5000438181810E941B150895EAECF3E0818195
:102B600021E04381628181510E941B150895EAECA6
:102B7000F3E0818121E0438162818F5E0E941B1519
:102B800008958091CE03882319F081508093CE035D
:102B90002091CA033091CB034091CC035091CD03D7
:102BA0006091CE037091CF038091D0039091D103B7
:102BB0000E94F51408958091CE03833018F48F5F3E
:102BC0008093CE032091CA033091CB034091CC0374
:102BD0005091CD036091CE037091CF038091D003CB
:102BE0009091D1030E94F5140895EAECF3E083E09C
:102BF000808311828FEF828388E783831482A7EC1E
:102C0000B3E012968C911297836012968C93758123
:102C100023E030E04FEF58E760E0868197810E9423
:102C2000F51408959091AD0292FB222720F9281700
:102C300079F080FB92F99093AD026091AC027091B3
:102C4000AD0284E090E00E94B23582E00E94F70A73
:102C5000089590E080E00E947E35863E9E4F19F4F4
:102C60000E946F14089580E00895B0E0A0E0EBE3C7
:102C7000F6E10C9485347901C82F880FDD0B4115DE
:102C80005105A9F0FE0193E0EE0FFF1F9A95E1F7C1
:102C9000E65FFE4F81819281895C9D4F208130E00B
:102CA0004217530708F49A01A9010E946735CE0123
:102CB0000E94F033D82E8823D1F001151105B9F008
:102CC00083E0CC0FDD1F8A95E1F7FE01E65FFE4F42
:102CD000438150E00417150708F4A801C65FDE4FD2
:102CE0006C817D81695C7D4FC7010E9467358D2DA8
:102CF000CDB7DEB7E7E00C94A134A5E0B0E0E3E89F
:102D0000F6E10C9482348D83E62E5A01F22E68018E
:102D1000809172068A3028F080E02596EAE00C94D3
:102D20009E348D818930C4F31A8219828A836B8321
:102D30002C8363E070E0CE0102960E946C088983C8
:102D4000E0923A01F0924D0110E000E030E020E026
:102D500044E050E0BE016F5F7F4F85E00E94351672
:102D60008823D1F24E2D50E030E020E0B50186E01E
:102D70000E943516882381F230E020E041E050E0E7
:102D8000BE016B5F7F4F87E00E943516882321F2DA
:102D90000F2D10E0960150E040E070E060E088E028
:102DA0000E943516BACFA4E0B0E0E9EDF6E10C944C
:102DB000883440919A0250919B0260919C027091DC
:102DC0009D022FB7F8948091060490910704A0917A
:102DD0000804B09109042FBF841B950BA60BB70BF9
:102DE00011E084369105A105B10518F10E94B60DD8
:102DF0006E5F7F4F8F4F9F4F69837A838B839C8356
:102E000010E000E030E020E044E050E0BE016F5F01
:102E10007F4F82E00E943516182F882351F00E94C0
:102E2000600860939A0270939B0280939C02909337
:102E30009D02812F2496E4E00C94A434A6E0B0E037
:102E4000E4E2F7E10C9486347B0101E010E09E019E
:102E50002A5F3F4F50E040E070E060E080E00E9479
:102E60003516182F882309F453C0409196025091CB
:102E7000970260919802709199022FB7F89480910F
:102E8000060490910704A0910804B09109042FBF93
:102E9000841B950BA60BB70B84369105A105B105D4
:102EA00048F465E070E088E392E00E946C089E813F
:102EB000891771F105E010E09E012F5F3F4F50E050
:102EC00040E070E060E081E00E943516082F65E088
:102ED00070E088E392E00E946C0811E09E819813F4
:102EE00010E0102301F10E94600860939602709335
:102EF0009702809398029093990285E0FE013196A3
:102F0000A1E9B2E001900D928A95E1F711E00BC0C2
:102F100085E0E8E3F2E0DE01119601900D928A95DA
:102F2000E1F71111EACF85E0E1E9F2E0D701019084
:102F30000D928A95E1F7812F2696E6E00C94A23453
:102F40008F929F92AF92BF92EF92FF920F931F9337
:102F5000CF937B01942FB901A801F7018080918064
:102F6000A280B380EFB7F894009106041091070493
:102F70002091080430910904EFBF081919092A09A2
:102F80003B09043611052105310518F4C1E09923E8
:102F900081F010E000E030E020E00E943516C82FFC
:102FA000882339F00E946008F7016083718382836F
:102FB00093838C2FCF911F910F91FF90EF90BF9033
:102FC000AF909F908F900895A1E0B0E0EAEEF7E116
:102FD0000C9488348091FF03898320914C0290E007
:102FE00041E02817190609F440E001E010E09E01D5
:102FF0002F5F3F4F62EA72E084E00E94A0172196A3
:10300000E4E00C94A434ABE0B0E0E9E0F8E10C9427
:10301000883488E0EAECF3E0DE01119601900D922D
:103020008A95E1F78091C7039091C803A091C903E5
:1030300089879A87AB8741E08B85811101C040E089
:103040000BE010E09E012F5F3F4F6EE972E083E0DE
:103050000E94A01781111092C9032B96E4E00C94F2
:10306000A4340E94D00D8093090180910901882326
:1030700059F010927B0185E280937C010E94800DC3
:1030800081110E940433089585E280937B01F4CF7F
:10309000A8E0B0E0EEE4F8E10C948A3466EE7EEF4E
:1030A00090E080E00E94B23560E082E090E00E9413
:1030B000943560E083E090E00E94943510923302F2
:1030C00060E074E184E090E00E94B23560E086E068
:1030D00090E00E9494356FEF87E090E00E94943575
:1030E00040E050E0BA0188E090E00E94A63560E040
:1030F00084E290E00E94943560E087E190E00E94D5
:10310000943560E08CE090E00E94943560E08DE0C2
:1031100090E00E94943519821A821B821C821D82C3
:103120001E821F82188648E050E068E170E0CE0100
:1031300001960E94843540E050E0BA0180E290E0C0
:103140000E94A63580E00E947C130E94951340E007
:1031500050E0BA018FE090E00E94A6351092D203B1
:103160001092D3031092D4031092D50382E390E01F
:103170009093D3038093D2034091D2035091D30311
:103180006091D4037091D50383E190E00E94A6354D
:103190002896E2E00C94A63428E030E043E060E0BA
:1031A00086E30E94EC300895CF93DF93D82FC62F8B
:1031B0000E94CC188D2F80680E9464318C2F0E9451
:1031C00064318AEB8A95F1F700C00E94943183E460
:1031D00092E00197F1F700C00000DF91CF910895D0
:1031E000682F893708F068E760938B0191E090932E
:1031F0008C0190918001992339F06150811101C0B7
:1032000064E08FE00E94D4180895FB0180810E9441
:10321000F018089590918B01911101C095E0282F2D
:10322000880F330BA901490F511DCA011816190641
:1032300014F081E090E00E94F0180895ACE0B0E056
:10324000E4E2F9E10C9484344F83588769877A87E4
:103250008B879C8780918001882309F446C08091E8
:10326000FD01811107C060E080E50E94D41881E073
:103270008093FD010E94CC1880E50E9464318AEBA6
:103280008A95F1F700C00E947C310E947C310E9437
:103290007C317C010E947C3120E0E22AF82A0E94E5
:1032A0007C318C010E947C3120E0022B182B0E9483
:1032B000943185E08A95F1F70000F894B701809188
:1032C0008301909184010E94090C90938401809362
:1032D0008301B80180918501909186010E94090CBB
:1032E000909386018093850178940E94800D8823B5
:1032F00009F469C00E9460080091FE011091FF016D
:1033000020910002309101026B017C01C01AD10AA8
:10331000E20AF30A970186010830110521053105FB
:1033200008F451C06093FE017093FF018093000286
:103330009093010200918E0110918F0120919001D4
:1033400030919101601B710B820B930B62337105FD
:103350008105910580F410928401109283011092EE
:1033600086011092850110928801109287011092B7
:103370008A011092890110918D010E94D00D482F71
:10338000BE01695F7F4F83E891E0112389F10E94BC
:10339000420B00918D01109180010E94D00D41E0FF
:1033A0004827BE01695F7F4F87E891E0011719F157
:1033B0000E94420B86E0FE013796A8E9B1E0019039
:1033C0000D928A95E1F786E0FE013796DE011196AF
:1033D00001900D928A95E1F729813A814B815C81B8
:1033E0006D817E8180E090E02C96E8E00C94A03422
:1033F0000E94AF0BCECF0E94AF0BDCCFCF93C82F74
:103400000E94CC188C2F0E9464318FE792E00197C4
:10341000F1F700C000000E947C31C82F95E09A951A
:10342000F1F700000E94943185E68A95F1F70000DB
:103430001092FD018C2FCF910895CF93DF930E94BE
:10344000E430269A0E94CC186AE58AE30E94D418D8
:103450002FEF80E792E0215080409040E1F700C0DC
:10346000000082E00E94FE1983E00E94FE1984E0C1
:103470000E94FE1985E00E94FE1986E00E94FE1956
:1034800060E080E10E94D41880E00E94FE19D82FED
:1034900081E00E94FE19C82F0E949431D23419F4A1
:1034A00081E0C13009F080E0817080938001882341
:1034B00021F064E08FE00E94D418DF91CF9108954D
:1034C0001F920F920FB60F9211242F933F934F9399
:1034D0005F936F937F938F939F93AF93BF93CF939C
:1034E000DF93EF93FF93D091E900DF708091EC00C0
:1034F000C82FC17080FDC0E81092E9008091F000F3
:10350000877F8093F00078940E946C0F1092E900FE
:103510008091F00088608093F000CD2BCF70C09335
:10352000E900FF91EF91DF91CF91BF91AF919F9112
:103530008F917F916F915F914F913F912F910F905C
:103540000FBE0F901F9018951F920F920FB60F92FB
:1035500011242F933F934F935F936F937F938F9398
:103560009F93AF93BF93EF93FF938091E10082FF0E
:1035700009C08091E20082FF05C08091E1008B7F4D
:103580008093E1008091DA0080FF24C08091D80010
:1035900080FF20C08091DA008E7F8093DA008091D6
:1035A000D90080FF9DC080E189BD82E189BD09B459
:1035B00000FEFDCF81E08093180480910A04811100
:1035C00009C00E94F0060E9491078091E200846089
:1035D0008093E2008091E10080FF17C08091E200BB
:1035E00080FF13C08091E2008E7F8093E200809183
:1035F000E20080618093E2008091D8008062809335
:10360000D80019BC85E0809318048091E10084FF04
:103610002BC08091E20084FF27C080E189BD82E158
:1036200089BD89B5982F917080FFFBCF8091D8001C
:103630008F7D8093D8008091E1008F7E8093E100A0
:103640008091E2008F7E8093E2008091E2008160B1
:103650008093E20080911904882309F447C084E034
:1036600080931804809118048091E10083FF27C0A3
:103670008091E20083FF23C08091E100877F8093E7
:10368000E10082E080931804109219048091E10017
:103690008E7F8093E1008091E2008E7F8093E20034
:1036A0008091E20080618093E20042E060E080E08F
:1036B0000E945F078091F00088608093F000FF9186
:1036C000EF91BF91AF919F918F917F916F915F919A
:1036D0004F913F912F910F900FBE0F901F90189513
:1036E00019BC1092180410920A0474CF8091E30060
:1036F00087FD93E090931804B5CF78941F921FB67E
:103700001F9211248F939F93AF93BF9380910604D0
:1037100090910704A0910804B09109040196A11D9D
:10372000B11D8093060490930704A0930804B093FE
:103730000904BF91AF919F918F911F901FBE1F9061
:1037400018959C014FB7F894809106049091070456
:10375000A0910804B09109044FBF821B930B0895F8
:103760002FB7F8948091060490910704A091080463
:10377000B09109042FBF08952F923F925F926F92EC
:103780007F928F929F92AF92BF92CF92DF92EF92F1
:10379000FF920F931F93CF93DF93809102048823AE
:1037A00009F4F4C080910004909101040E94A11BCF
:1037B000C29708F4CBC00E94B01B90930104809381
:1037C00000048AE694E090937106809370060E944C
:1037D000800D882309F4F2C083E794E00E94E30E91
:1037E00088EB0E945D0E809197018F708A3008F0FF
:1037F0006CC0805D0E945D0E89EB0E945D0E809121
:1038000096018F708A3008F062C0805D0E945D0E64
:1038100080E794E00E94E30E8091940190919501DD
:1038200054E0969587955A95E1F78F708A3008F0A5
:1038300050C0805D0E945D0E809194018F708A302F
:1038400008F049C0805D0E945D0E8DE694E00E9404
:10385000E30E8EE991E00E94F11288E994E00E9463
:10386000E30E80919A010E94DE0B0E94F11280917A
:103870009B010E94DE0B0E94F11280919D010E942B
:10388000DE0B0E94F11280919C010E94DE0B0E94CF
:10389000F11280E994E00E94E30E80918B01811186
:1038A00001C085E00E94DE0B01960E94F1128CE8B7
:1038B00094E00E94E30E80919301882371F081309F
:1038C00009F476C083E894E00AC0895A93CF895AF4
:1038D0009DCF895AAFCF895AB6CF89E894E00E942C
:1038E000E30E80918D01882309F465C080E894E09F
:1038F0000E94E30E89E794E00E94E30E809192011A
:10390000811101C084E0805D0E945D0E85EA94E033
:103910000E94E30E8091D8030E941D0B0E943F0677
:103920000E94F11280EA94E00E94E30E8091D60397
:103930000E943F060E94F1128EE994E00E94E30E7D
:103940008091D2030E943F060E94F1128091680488
:1039500090916904892B09F047C08091FF03882367
:10396000A9F00E9460080091FB031091FC032091D4
:10397000FD033091FE03601B710B820B930B6F3FB5
:103980007F4F8F4F9F4710F40E94B214DF91CF9169
:103990001F910F91FF90EF90DF90CF90BF90AF906D
:1039A0009F908F907F906F905F903F902F900895A1
:1039B00086E894E094CF8DE794E09ACFC0E9D0EF09
:1039C000DC0F8CEA94E00E94E30E11E01D0F8D2FB6
:1039D0000E945D0ED12F1C13F8CF80E00E94F10EE3
:1039E000C05FC03C61F7B2CF80910204882309F424
:1039F000B4CF8091FA038111B0CF0E94CD142091F1
:103A00006804309169042115310509F4A6CF80E0DE
:103A100041E050E0082F10E01A01082E02C0220CED
:103A2000331C0A94E2F7B10162237323672B11F46C
:103A30008F5FF0CF9091F90390FF95C0880F880FAA
:103A4000880F8093750110927801895F80937601C9
:103A500083E08093790124E630E047E050E063E7BB
:103A600071E088E70E945E32892B09F076CFA801C9
:103A700025E0440F551F2A95E1F78091F90380FF57
:103A800084C0E9EDF3E080E2DF011D928A95E9F759
:103A9000A0EDB1E00CEC11E084EDC82E81E0D82E51
:103AA00097E0592E772473948D91E80129918E0126
:103AB000240F352F311D26593B4FE82FF0E0E752F8
:103AC000FC4F90E080E0652C681A872C082E01C01E
:103AD000880C0A94EAF77901A12CE701B9907E01DC
:103AE000B820662D6A196770962E062E000C770B8B
:103AF000DB2D01C0DD0F9A94EAF77195619571098C
:103B00006770772701C0B6946A95EAF7BD2A60818D
:103B1000962E9B289082A39468E0A612DECF019691
:103B200031968830910579F6CA16DB0609F0BCCFCC
:103B300004E610E020E230E049ED53E060E488E77D
:103B40000E947F32892B09F008CFE101C095D09502
:103B50008091680490916904C823D923D0936904A3
:103B6000C0936804FACE8295880F807680937501A1
:103B70009801369527953695279520937801815E93
:103B8000809376012093790166CF46595B4F04E616
:103B900010E020E230E0D2CF0E94800D882319F09F
:103BA0000E94B01B08950E94B60DCB01089560914C
:103BB000CA03669570E041E050E082E791E00E9420
:103BC0004D35892B19F481E08093C8030E94CC1DE8
:103BD0009093C2038093C1038091C9038460809352
:103BE000C90308959091CA0390FF39C09170811163
:103BF00037C092609093CA038091C903816080931B
:103C0000C903662391F02091CA033091CB03409100
:103C1000CC035091CD036091CE037091CF0380917E
:103C2000D0039091D1030E94F5146091CA03669568
:103C300070E041E050E082E791E00E944D35892B31
:103C4000B1F00E94880881E08093C40320E0409195
:103C5000CD036091CC038091CB030E941B15089586
:103C6000893010F09061C6CF880F982BC3CF0E9487
:103C7000D71DE9CF8091CA038695815009F488E069
:103C800061E00E94F21D08958091CA0386958F5FBE
:103C9000893008F081E061E00E94F21D0895909162
:103CA000CA0390FF08C09695981728F0961718F445
:103CB0000E94441E089561E00E94F21D089584E070
:103CC0000E940E0B0E94B01B9093E0028093DF02D3
:103CD00082E08093E1020895AEE1B0E0E2E7FEE128
:103CE0000C94863440915C0450915D0460915E04B4
:103CF00070915F0480916004909161040E941E198C
:103D000020935C0430935D0440935E0450935F0401
:103D1000609360047093610486E0ECE5F4E0DE01FA
:103D2000179601900D928A95E1F786E0FE0137968D
:103D3000DE011D9601900D928A95E1F786E0FE0165
:103D40003D96DE01119601900D928A95E1F786E08D
:103D5000FE013196ACE5B4E001900D928A95E1F751
:103D600086E0ECE5F4E0DE01599601900D928A952B
:103D7000E1F786E0FE017996DE01179601900D923B
:103D80008A95E1F70B8DEC8C9E2D902B8091E102B2
:103D9000992309F41DC1002E000C110B0E2C000CF0
:103DA000FF088230F1F188F4813009F4E8C00E9404
:103DB000B01B9093E0028093DF0281E08093E102E8
:103DC0001092D7031092D60332C0833099F1843019
:103DD00071F7980117FF04C022273327201B310BEE
:103DE000C701F7FE04C0882799278E199F09880FFD
:103DF000991F281739070CF042C08091DB0290917F
:103E0000DC02E80EF91E40E0F7FE17C17EECE71673
:103E10007FEFF7067CF1F092DC02E092DB0280E0BB
:103E200041C00E94B01B9093E0028093DF0280E0CB
:103E300020E069C0C701F7FE04C0882799278E19C2
:103E40009F09980117FF04C022273327201B310B3D
:103E5000280F391F8091DD029091DE02821B930BA7
:103E60009093DE028093DD021816190604F780E0B5
:103E700020E045C022E3E20EF11C4E5CC5CF8091EC
:103E8000D9029091DA02080F191F80E017FFDFC0F6
:103E90000E3C9FEF19070CF46BC01093DA020093ED
:103EA000D90240E0082E000C990B62E370E00E94FA
:103EB000CB348091D50381115FC081E090E0689F91
:103EC0009001699F300D789F300D1124642F772762
:103ED00061950CF47095CB0162E370E00E94CB34E5
:103EE0008091D40341E050E0882311F04FEF5FEF61
:103EF000649FC001659F900D749F900D1124F12C5B
:103F0000E12C10E000E00987EA868B872C8786E0A9
:103F1000FE013796DE01119601900D928A95E1F728
:103F200086E0FE013196DE01539601900D928A954E
:103F3000E1F786E0FE017396DE01179601900D927F
:103F40008A95E1F786E0FE013796ACE5B4E0019092
:103F50000D928A95E1F70E94140E81116BC0809139
:103F6000E2021092E20281706E96E6E00C94A234B6
:103F70000E5C1F4F8E5C8ACF8FEF9FEFA0CFC701E3
:103F8000F7FE04C0882799278E199F09980117FF0B
:103F900004C022273327201B310B820F931F20914F
:103FA000D6033091D703820F931F9093D70380934A
:103FB000D6032091D2033091D303821793070CF4D8
:103FC00036CF1092D7031092D6030E945F1E2FCFD8
:103FD000823071F048F4813019F11092D7031092B9
:103FE000D6031092E10243CF853008F440CFF5CFDD
:103FF0008091DF029091E0020E94A11B893E9340D4
:1040000008F435CF1092E10284E00E94EA0A10928F
:10401000DC021092DB021092DA021092D90227CF52
:104020008091DF029091E0020E94A11BC39708F4E7
:104030001ECFD3CF81E090E094CF83E3E816F10464
:104040000CF4E9CE62E3E61AF1084253DDCE033305
:1040500011050CF422CF02531109825317CFA4E1AA
:10406000B0E0E5E3F0E20C947C348C01DC011496C2
:104070008C911497882309F4BEC021E04C911196CD
:104080005C91119712966C91129713967C911397ED
:1040900015969C910E9441147C01F801858188232A
:1040A00009F46AC1C70197578038910508F064C1C7
:1040B000FFE0FE1508F48FC08FEF93E00E9470358B
:1040C000811189C069E4A62E63E0B62EE1104DC0CF
:1040D000FE01339686E0DF011D928A95E9F75AE0EA
:1040E000452E7501BFEFEB1AFB0AC5010E94703522
:1040F00089831A82882309F46EC0813009F07FC059
:104100006501E2E0CE0ED11CC7010E9470358A83A2
:10411000882309F460C09FEF980F9330A0F5F3E077
:10412000AF0EB11CC6010E9470358B83882309F441
:1041300052C01C82DE0111967D01F70120812223ED
:1041400081F2213009F0BAC091818281913009F069
:1041500058C0F2E0EF0EF11C65E070E0893311F415
:1041600060E570E00E94DB1253C0A11424E0B206A7
:1041700091F1C5010E947035811101C0EA943FEFB1
:10418000A31AB30AA3CF56018430A1F642E0E42E6D
:10419000F12C56012FEFA21AB20AC6010E94703507
:1041A000E1E0F0E0EC0FFD1FEE0DFF1D80838823A2
:1041B00091F08C3741F4E2E0F0E0EC0FFD1FEE0DE2
:1041C000FF1D1082B7CF3FEFE31AF30A650187E0C6
:1041D000E816F104F1F680912802877061F0D801A9
:1041E00015968C91882339F08091AD0282FF03C02F
:1041F00082E00E94F70A6496E0E10C94983457013B
:1042000099CF923039F522E0E20EF11C0E94811222
:10421000FFEFEF1AFF0A8FE99FE00197F1F700C067
:104220000000AFE9BFE01197F1F700C00000EFE92F
:10423000FFE03197F1F700C000008FE99FE00197A0
:10424000F1F700C00000AFE9BFE01197F1F700C03F
:10425000000073CF933031F432E0E30EF11C0E9482
:104260005512D6CF943021F08FEFE81AF80AD0CF4C
:1042700092E0E90EF11C30E020E0B7016F5F7F4F64
:10428000D70111964C918053990B8A30910558F0C3
:104290002150310908F4BCCFEFE9FFE03197F1F785
:1042A00000C00000F5CF429EF001439EF00D1124A6
:1042B0009C012E0F3F1F842F7B01DFCFE22FF0E008
:1042C000E557FE4F5490822F86958695869590E00F
:1042D000FC01E558FE4F64902770712C022E02C03D
:1042E000759467940A94E2F731E063227724FC0125
:1042F000E559FE4F8490912C022E02C0959487942C
:104300000A94E2F7A1E08A229924FC01E55AFE4FC3
:10431000C490D12C02C0D594C7942A95E2F7B1E09D
:10432000CB22DD246114710419F081EE0E94811208
:104330008114910419F086EE0E948112E9E365E090
:1043400070E05E1202C060E570E0852D0E94DB1215
:104350008114910419F086EE0E94551261147104C3
:1043600019F081EE0E945512C114D10409F450CF06
:1043700065E070E08CE2F6CEF0929501E092940157
:10438000F801808191819093970180939601F701C4
:104390003497E533F10508F063C0E55FFD4FE49124
:1043A000D80115968C9120EB811102C02E2FE0EBE5
:1043B000AEE9B1E090E080E03D9132134BC080580F
:1043C0009E4FDC015E96EC93D80115968C91882364
:1043D000F9F08091E1028350823008F49BC0E7EA53
:1043E000F1E087EB91E021913191E216F30681F043
:1043F0008E179F07C1F71092E10284E00E94EA0A3B
:104400001092DC021092DB021092DA021092D902B2
:10441000C7019A95F70181159F4108F4FF27D8013C
:1044200015968C91E13DF10548F0E93DF10508F460
:10443000AFC0E730BEE7FB0709F4C0C0882309F42A
:10444000ABC0FE57E031F10508F0A6C0EC52FA4CC3
:104450000C94013501968630910509F0ADCFB4CFAB
:10446000F8018581A70140545E474830510508F0A6
:10447000ABCFFA01EC51FA4C0C94013596E0ECE527
:10448000F4E0DE01199601900D929A95E1F796E01D
:10449000FE013996DE011F9601900D929A95E1F783
:1044A000FA8421E030E001C0220F4A95EAF7882320
:1044B00041F1F22A83E08093E1028EE190E0909353
:1044C000DE028093DD020E945F1EF88A86E0FE0114
:1044D0003F96DE01119601900D928A95E1F7CE018B
:1044E00001960E94A6068093E20286E0FE013196C4
:1044F000ACE5B4E001900D928A95E1F70E94140EAC
:104500006ACE2095F222DFCF882321F084E08093C9
:10451000E10261CE0E945F1E5ECE882309F45BCE6D
:104520008091D2039091D30305969093D303809307
:10453000D2034091D2035091D3036091D403709180
:10454000D50383E190E00E94A63545CE882309F487
:1045500042CE8091D2039091D30305978530910587
:1045600024F785E090E0E1CF882309F434CE8091F0
:10457000D40391E089278093D403DBCF882309F407
:104580002ACE8091D50391E089278093D503D1CF9E
:10459000682F8E2F0E94460EF801858181116AC313
:1045A00080910B048272F701E052F847E531F10582
:1045B00008F0B9C0E451FA4C0C9401350E942E0B5E
:1045C000EBCF80E00E94F0181092920104CE40914F
:1045D0008B015091920150FB47F956955370809191
:1045E00093018370880F880F582B60E070E08FE094
:1045F00090E0A9CF81E00E940A19EDCD8FEFFBCFAB
:104600008AE0F9CF86EFF7CF90918D0181E089277D
:104610000E942E0BE0CD80919201811101C084E0B7
:104620008F5F18160CF081E0883008F087E08093E7
:104630009201D1CD80919201811101C084E081501D
:10464000F0CF81E080939301C6CD10929301C3CD4A
:1046500082E0F8CF8091CA0380FF1EC0282F2E7FF2
:104660002093CA033091CB034091CC035091CD03EA
:104670006091CE037091CF038091D0039091D103CC
:104680000E94F5140E9488088091C903816080937C
:10469000C9030E94CE0C9FCD81608093CA0361E064
:1046A00086950E94F21D97CD4AE35EE164E47EE1C7
:1046B0000E94820890CD44E45EE16AE37EE1F8CF97
:1046C0004DEA55E167EB75E1F3CF47EB55E16DEA54
:1046D00075E1EECF43E955E160EA75E1E9CF40EAE3
:1046E00055E163E975E1E4CF49E755E166E875E135
:1046F000DFCF46E855E169E775E1DACF41EC55E1F6
:104700006BED75E1D5CF4BED55E161EC75E1D0CFA7
:1047100061E081E0C6CF65E082E00E944F1E5BCD84
:1047200068E086E0FACFF7E7EF16FCE7FF0609F44A
:1047300060C028E7E2162CE7F20609F45EC0F80133
:104740008581E080F180882309F49FC0C7010E9421
:10475000E213D82E682FC7010E94910AB7018D2D50
:104760000E94D4130E947D097C01882ED8011596E1
:10477000AC90159716969C9092943FE0932280916E
:1047800028028770F1F0CA2CAA20E1F08F2D807FDB
:10479000803451F080E28E0D883098F0911004C082
:1047A0008F2D807E803269F08091AD0282FF09C03A
:1047B00082E00E94F70A809128028770CC24C3947B
:1047C0008111C12CBF2CB2942FE0B222BBE0BB15EB
:1047D00008F4C3C0EB2DF0E0EF5FF94C0C94013509
:1047E00081E00E940E0B43E062E081E00E94CA0A71
:1047F000F2CC81E00E94EA0AF6CF82E0FBCF33E000
:10480000E3163CE7F30671F160F4E1149CE7F90666
:10481000D1F0A1E0EA16ACE7FA0609F090CF0E94C9
:104820002C12BBE5EB16BCE7FB0669F1ECE5EE16D6
:10483000ECE7FE06F1F0FAE5EF16FCE7FF0609F0FB
:104840007ECF81E01DC010920B040E94600F2FEFFD
:1048500034E38CE0215030408040E1F700C000009C
:104860000E944F086FEF7FEF90E080E00E94B2352A
:10487000D6CF8091AD0282FB882780F991E089270D
:104880000E9412165CCF80E0FBCFC7010E945D0A38
:10489000D82E64CFEF2DEF70DE2E8F2D807F19F094
:1048A000D29490EFD922AA20B9F0DD2069F080E2FD
:1048B0008E0D883010F0811009C080910B04D82A29
:1048C000D0920B040E94230F8E2D45C0809132029E
:1048D000D82AD0923202F6CF8E2D0E945512DD20BA
:1048E000E1F180E28E0D883010F0811004C08D2D32
:1048F0000E944C0A06C0D09480913202D822D092F5
:1049000032020E94230F29C0FF2DFF70DF2E8F2D52
:10491000807F803219F0D29480EFD822882059F01D
:1049200021E0821609F481C0AA2009F48DC09920E3
:1049300009F44FC0C9CF8091AD0282FD46C0AA20C4
:10494000F1F1DD2039F080910B04D82AD0920B04CC
:104950000E94230F80E00E948112AB2DA850BB0B58
:10496000149710F40E94A50DCC20A9F08091280284
:1049700080FD11C0F80115828695869586950E9466
:104980000E0BC8010E942F208091280286958695E3
:1049900086950E94EA0A20E0D8014C9111965C911C
:1049A000119712966C91129713967C911397149607
:1049B0008C91149715969C910E9441141CCC80E018
:1049C0000E945512DD2049F292CFAA20A1F0911049
:1049D00004C08D2D0E944B12C0CF31E09312BDCF89
:1049E000809131029D2D9823D91609F4B6CFD82A8B
:1049F000D0923102B2CF9110B0CF8D2D0E944412CF
:104A0000909131028D2D892329F08D2D8095892358
:104A100080933102809102029D2D982309F49DCF4D
:104A2000D094D822D092020298CFAA2029F085E013
:104A3000891508F492CFCDCF94E0991508F48DCF65
:104A40008D2D0E94441289CF9920D1F3A9E38A12B7
:104A500009C1BFEFE7EEF3E0B150E040F040E1F70D
:104A600000C000008E2D0E94551277CF6A2D8E2D2A
:104A70000E94460E72CF8F2D837091F5A1106DCFDD
:104A80004E2D429546954770440F440F8E2D8F70E2
:104A9000042E01C0880F0A94EAF72E2D2071E4FE3F
:104AA00007C02FE030E001C0220F4A95EAF72095B9
:104AB0003F2D369536953370323069F050F4409181
:104AC0003302313029F0822B84230E941A0B45CF08
:104AD000842B822BFACF282B809133028227F5CFAB
:104AE0008695AA2011F08F2D8170882309F435CF87
:104AF0004E2D429546954770440F440F8E2D8F7072
:104B0000042E01C0880F0A94EAF72E2D2071E4FECE
:104B100007C02FE030E001C0220F4A95EAF7209548
:104B20003F2D369536953370323069F050F4409110
:104B3000D803313029F0822B84230E94C70A0DCF7D
:104B4000842B822BFACF282B8091D8038227F5CF94
:104B50009F2D9F70F92EAA2029F0892F0E940E0BFD
:104B60008E2D38CF8E2D0E9444128F2D0E94EA0A7E
:104B7000F4CE8E2DA2EF8A16B1F1A81570F0B0EF29
:104B80008B16D1F0E1EF8E1691F0AA2009F45EC0E9
:104B900091109ACE8F2D8F712AC0F3EF8F1651F19D
:104BA00024EF8212F2CF8091AD0282FD2FC08F2DB3
:104BB0008F71AA20D9F21BC0AA2081F034E03915E8
:104BC00008F4CBCE2F2D2F7181E090E001C0880F2B
:104BD0002A95EAF79091D8038927AFCF85E0891508
:104BE00008F4BBCEEFCF8F2D8F71A110BFCF0E94E5
:104BF0000E0BB3CE80E0AA2009F49FCF9F2D9F71AA
:104C000081E001C0880F9A95EAF797CFAA2099F022
:104C10009F2D9F71F92E892F0E940E0B8091AD025E
:104C200082FF07C0A8E0FA9EC00111248360809330
:104C300028028F2DDCCF81E00E94F70AB1E0B91580
:104C400008F08BCE82E00E94F70A87CE992079F097
:104C5000893341F4EFEFF7EE23E0E150F0402040DC
:104C6000E1F7FECE8FE19EE40197F1F7F9CE8F2DAB
:104C70008F717CCFB7E7EB16BCE7FB0609F4B0CD2C
:104C8000E8E7EE16ECE7FE0609F0B9CD82E0A9CD23
:104C9000CF93DF9380912702807F09F04DC08091F0
:104CA0002602882309F448C0E0915B045091220455
:104CB000C0912202D09121026091230270912402BE
:104CC00047E05E17C9F18E2F90E0E49FF0011124B8
:104CD000ED5DFB4F2481222391F1489FF001499F14
:104CE000F00D1124DF01AD5DBB4F11962C91119792
:104CF0002C1325C02C912D1322C015962C9115979D
:104D000021111DC012962D913C91261B370B283C7A
:104D10003105A8F4809127028F708061809327026B
:104D2000E75DFB4F80818F708061808381E292E03C
:104D30000E942F200E94530ADF91CF910895FC0119
:104D40003196E770BECFA4E1B0E0E9EAF6E20C9458
:104D500080348C0186E0F801DE011F9601900D92EF
:104D60008A95E1F7F8018481E58091E2A92E92E02D
:104D7000B92E90912502911128C0882319F1EE20B7
:104D8000F1F0C8010E941E14F82E8823C1F087E0BC
:104D9000F801D50101900D928A95E1F780912502E5
:104DA000813031F480912102909122020E941114ED
:104DB0000E9448268F2D6496ECE00C949C34C80128
:104DC0000E942F20FF24F394F5CFD080C1808280F1
:104DD0009380F09026022091230230912402A401B6
:104DE000421B530BFF2009F4D9C0483C510508F081
:104DF00092C08823F9F29091220280912702282FF5
:104E0000207F09F056C0C91214C090912102D91216
:104E100010C0E11048C08F7080618093270281E24A
:104E200092E00E942F2080912702F8018683F12CC6
:104E3000C1CFE11038C06C2D8D2D0E94D1066C2D94
:104E40008D2D0E94D106E82E8111F1CFDF86C88A10
:104E50008F8598890E941114292F22952F70243054
:104E600058F49F70223088F0992399F0F8019681C8
:104E7000907F79F4FE2C9ECF2A5F2F70223068F04D
:104E8000C8010E942F20EF2CF5CF992311F0882321
:104E900089F3805E883070F3F3CF803F58F3815FF1
:104EA000833070F7E7CF80912702816080932702DB
:104EB000BECFC91207C090912102D91203C0EE20C3
:104EC00009F48DC0C8010E941E14882309F477CF0D
:104ED000EE2009F474CF80912702803288F020916F
:104EE000210230912202398728879B868A869091F9
:104EF00025029C871D868E87CE0108960E942F2052
:104F000087E0F801A1E2B2E001900D928A95E1F705
:104F10000E94482657CF90912702292F207F51F4D5
:104F200081E292E00E942F2087E0F50111928A959C
:104F3000E9F77DCF882309F43DCF809122028C11BF
:104F400010C080912102D8120CC0E1100AC09683D3
:104F5000C8010E942F2087E0F50111928A95E9F798
:104F600029CFC8010E941E14882309F428CFEE20FF
:104F700009F425CF80912702803210F2209121027E
:104F8000309122023A8329839C828B829091250260
:104F90009D831E828F83CE010196B0CF483C510580
:104FA000D0F6882309F40ECFFE2CEE2009F407CFAB
:104FB000809122028C1120C080912102D8121CC045
:104FC0008091270280FD0FC0982F907F61F086832B
:104FD000903F31F0982F907F905F8F70892B868360
:104FE000C8010E942F2087E0F801A1E2B2E0019001
:104FF0000D928A95E1F7DECEC8010E941E14811140
:105000007FCF80912702816080932702C8010E9490
:105010002F20D0CEABE1B0E0E0E1F8E20C94883490
:105020004E8B5F8B688F798F8A8F9B8F192F911191
:10503000109232021D8A86E0FE017696DE011F96EE
:1050400001900D928A95E1F70A8D002341F021E04D
:105050004F85588969897A89C8010E9441140B8B50
:105060001C8B87E0FE013F96DE01189601900D92A1
:105070008A95E1F7CE0108960E94A32681112AC0E5
:1050800087E0FE013896DE01119601900D928A9517
:10509000E1F78C858823F1F02091220430E0C901EA
:1050A00001968770992740915B0448171906E9F02B
:1050B00097E0929FD001939FB00D1124AD5DBB4F3F
:1050C000FE01319601900D929A95E1F780932204AA
:1050D0000E94530A17E080915B0490912204891387
:1050E00014C06B96E4E00C94A43410920B040E945C
:1050F000600F1092220410925B0487E0E1E2F2E07C
:10510000DF011D928A95E9F7E5CF819FC001112447
:105110008D5D9B4F0E94A326882319F380915B0429
:1051200090E001968770992780935B04D4CFA6E026
:10513000B0E0EDE9F8E20C9488340E94B01B8C01D9
:1051400080913402909135028017910781F0198285
:105150001A820E94B01B682F49815A81792F80E002
:1051600090E00E940A28109335020093340226969C
:10517000E4E00C94A434ABE0B0E0E1ECF8E20C9491
:105180007C34CE0101967C018AE0D7011D928A957C
:10519000E9F73701570190E0C92E91E0D92E442458
:1051A0004394512CF60181916F010E941C0C00C0A8
:1051B00085E0882E81E0982EF40110E000E0219136
:1051C000A22FA295AF70B0E090968C9190E02F70D6
:1051D00002C0959587952A95E2F780FD0AC0D50112
:1051E0008C919201002E01C0220F0A94EAF7822BC3
:1051F0008C930F5F1F4F0430110509F7F6013197AB
:1052000080810E94300CB0EABA95F1F7EFEFAE1A48
:10521000BE0AF5E0CF16F1E0DF0621F6DD24D394D7
:10522000D4018D914D010E941C0C00C03D2D002E1B
:1052300001C0330F0A94EAF7F70140E051E0DA01C8
:105240002D91AD01822F82958F7090E0DC019096B8
:105250008C9190E02F7002C0959587952A95E2F782
:1052600080FD03C08081832B80833196B1E045307F
:105270005B0729F7F401319780810E94300CE0EA46
:10528000EA95F1F70F5F1F4F0830110549F6E3E784
:10529000F6E097012B5F3F4FD12CD3018D913D015B
:1052A0009191891729F0DF0111978C93DD24D39414
:1052B0002615370591F70091AB02DD2041F181E021
:1052C0008093F0010E94B01B9093EF018093EE0158
:1052D0008091EE019091EF010E94A11B0597D8F0FB
:1052E00010E002541D4F45E050E063E776E0C8014E
:1052F0000E945A35892B41F085E0E3E7F6E0D801BA
:1053000001900D928A95E1F71092F00104C080910E
:10531000F0018111DDCF0E94800DC82EE091AB021B
:10532000811188C0F0E0E254FD4F85E0A8E3B2E0CF
:1053300001900D928A95E1F765E070E088E392E0D4
:105340000E946C088093370280903D0290903E024C
:10535000A0903F02B09040028091F1019091F20143
:10536000A091F301B091F40188169906AA06BB0634
:10537000D1F08092F1019092F201A092F301B092EB
:10538000F4010E94800D81110EC00E946008861AEF
:10539000970AA80AB90A8092A6029092A702A09240
:1053A000A802B092A9028BE0E1E4F2E0D7010190FB
:1053B0000D928A95E1F79981892F8695FA80EB8085
:1053C000CC800A851B8510924B021123F9F010FF47
:1053D0000AC090FF26C09091CA0391609093CA03BF
:1053E00060E00E94F21D11FF06C020E04C2D6E2DE2
:1053F0008F2D0E941B1512FF04C00023A9F00E94EC
:10540000D71D13FF03C081E08093C40380914C0239
:10541000882369F00E94CD148D2D2B96E0E10C9429
:1054200098340E94710DDFCF0E948808EACF0E9455
:10543000B214F2CF28E736E085E0D9011D928A95B3
:10544000E9F70E2F10E002541D4F809172068A304A
:10545000E8F56EE177E1C8010E94450C882309F464
:1054600052C063ED76E1C8010E94450C882309F41F
:105470004AC063E078E1C8010E94450C882309F422
:1054800042C064EE77E1C8010E94450C8823D9F13F
:105490001092720681E08093F7010091AA0210E059
:1054A00002541D4F45E050E068E776E0C8010E94D5
:1054B0005A35892B09F4B0CF85E0E8E7F6E0D8014A
:1054C00001900D928A95E1F7DC2CA6CF8091F50131
:1054D0009091F6010E94A11B843F914008F0B9CF42
:1054E0008091F701882309F497CF1092F701E0919A
:1054F000AA02F0E0E254FD4F95E0DF011D929A957B
:10550000E9F7D82E89CF809172068F3F31F08F5FF7
:10551000809372068A3008F4BDCF0E94B01B90932E
:10552000F6018093F501DCCF1F921FB61F92112464
:105530008F939F93AF93BF9380910504811113C004
:105540008091060490910704A0910804B091090489
:105550004196A11DB11D8093060490930704A0936A
:105560000804B0930904BF91AF919F918F911F9050
:105570001FBE1F901895CDB7DEB7A6970FB6F8944B
:10558000DEBF0FBECDBF85B7806885BF85B7806899
:1055900085BF84B7877F84BF0FB6F894A8958091A4
:1055A0006000886180936000109260000FBE80E808
:1055B00090E00FB6F89480936100909361000FBE65
:1055C0008FE499E09093E5018093E4010E94F00656
:1055D0000E9491078091E20084608093E2007894B9
:1055E000809118048823A1F01091E9001F70909118
:1055F000EC00892F817090FD80E8182B1092E90053
:105600008091E80083FD0E946C0F1F701093E900E9
:1056100082E084BD93E095BD9AEF97BD80936E00C4
:105620001092A6021092A7021092A8021092A9024C
:105630000E946F14811102C00E9495130E943118BC
:10564000809109010E943118809105010E94300C5F
:10565000809106010E94300C809107010E94300C5D
:10566000809108010E94300C00E011E0D8018D917A
:105670008D010E94300CB1E005301B07B9F7809115
:10568000090195E0811190E09093AB0285E0891BC0
:105690008093AA020E94800D811102C00E940733EC
:1056A000E3E7F6E0AEEBB2E011921D9226E0ED37B3
:1056B000F207D1F70E942916811102C00E944818F2
:1056C00082E090E00E9470358093AF0284E090E029
:1056D0000E947E359093AD028093AC020E94BB285D
:1056E0008FE39CE90197F1F700C000000E94BB28FE
:1056F0008091BE0280FF08C06FEF7FEF90E080E0F6
:105700000E94B2350E944F0883E090E00E947035FD
:105710000E941A0B0E94800D882309F49DC180E02D
:105720008093F90380E8809367040E94BE316BE0A8
:1057300070E087E592E00E9488148823E9F1809167
:10574000F90365E070E081FD89C182E592E00E9485
:105750008814882389F16DE070E080E492E00E9473
:105760008814882349F10E946008605A75418F4F60
:105770009F4F6093FB037093FC038093FD03909312
:10578000FE03EAE6F4E080E092E0DF019C011D9276
:1057900021503040E1F7F0937106E09370068FEFEF
:1057A0009FEF909369048093680481E080930204E2
:1057B0008093FF031092FA038091AE02811178C0AA
:1057C0000E942916811104C00E9448180E94F515F4
:1057D00088E090E00E9478354B015C0184E290E023
:1057E0000E947035282F30E040E050E060E070E02B
:1057F00080E090E000E20E940E35282939294A29EC
:105800005B292093CA033093CB034093CC0350937E
:10581000CD036093CE037093CF038093D003909316
:10582000D1038091C90383608093C9032E7F89F5DA
:105830000E94F51588E090E00E9478356B017C01AC
:1058400084E290E00E947035282F30E040E050E084
:1058500060E070E080E090E00E940E35B22FA32F50
:10586000F42FE52F5B0197018601BC29A12BFE29AE
:10587000E32BB093CA03A093CB03F093CC03E09344
:10588000CD036093CE03B092CF038093D003909367
:10589000D1030E948F080E9488088091CA0380FF6C
:1058A00004C060E086950E94F21D81E08093AE0204
:1058B0000E94800D811102C00E9407330E941D1AB0
:1058C0000E94800D81112EC08DE09EE090935901C1
:1058D000809358012AE130E0309354012093530122
:1058E0008AE390E090935701809356014BE359E08F
:1058F000509361014093600130935C0120935B0100
:1059000090935F0180935E0145E059E150936901F6
:105910004093680130936401209363019093670181
:10592000809366010E9429168823B9F08FE090E0E9
:105930000E9478358B01862F8F770E94F018001F08
:105940000027001F612F6370660F602B6093920128
:10595000169516951370109393010E94E70D83E13D
:1059600090E00E9478356093D2037093D3038093C4
:10597000D4039093D5038AE691E090930404809336
:10598000030458E1C52ED12C60E4E62EFF24F394E5
:105990008091180400E112E1853009F49EC00E9454
:1059A000BB2800EB12E049EBA42E41E0B42EB50178
:1059B0002EEB32E0F8019191D9018D919D01DB012F
:1059C0004D91BD018423B2E0EA3BFB0709F491C08D
:1059D000981789F30E94800D282E3EEB832E32E02B
:1059E000932E612CF40171904F01D5018D915D01D1
:1059F0007822F80131908F01371429F1512C442479
:105A000043943724832D8421B1F02220A1F059A2A0
:105A10006AA20E94B01B9CA38BA3FDA291E0842DDF
:105A2000872109F490E09EA349A15AA16BA17CA112
:105A30008DA10E940A285394440CF8E05F12E2CF33
:105A4000F8013197708263942AE06212CBCF0E94F2
:105A5000B60D7724739452C082E062CE8DE492E05A
:105A600076CE80911804843029F10E94B2140E94ED
:105A70006C1E109205040FB6F894A895C0926000B1
:105A80000FBEE092600083B7817F846083BF83B7DD
:105A9000816083BF7894889583B78E7F83BF0FB66C
:105AA000F894A895809160008861809360001092BE
:105AB00060000FBE80911704882379F00E94BB28F4
:105AC000A9EBB1E0EEEBF2E081919D91892309F021
:105AD00063C332E0E83CF307B9F7809118048530DE
